:060000000A128A11FC2F18
:100F8600831603178801890103308316031386002D
:100F960088018113151495148312031386018801A1
:100FA600831603130F088F3960388F000F1408005B
:100FB6000A128A11C3270A128A118312031306180A
:100FC600E52FE62FEE2F061CE92FEA2FE62F01303C
:100FD600F000700888078618F12FF22FE02F861C84
:100FE600F52FF62FF22F01308802E02F0A128A1110
:0A0FF600002883010A128A11DB2F84
:08400000FF3FFF3FFF3FFF3FC0
:04400E00D420FF3F7C
:00000001FF
