:060000000A128A11FC2F18
:100F20008316031788018901033083160313860093
:100F30008701880181131514951483120313860108
:100F400087018801831603130F088F3960388F00DB
:100F50000F140800831603130514831603170814CF
:100F6000831203131F179F13831603131F129F125D
:100F70009F13831203131F119F111F129F121F141F
:100F80002130F000F00BC22F08000A128A119027BE
:100F90000A128A110A128A11AA270A128A118312C6
:100FA00003130618D42FD52FDD2F061CD82FD92FC9
:100FB000D52F0130F100710888078618E02FE12F46
:100FC000E72F861CE42FE52FE12F013088029F14C4
:100FD0009F18EB2FEC2FE82F0C131E0887000D3005
:100FE000F200FB30F100F10BF32FF20BF32FF82F8F
:100FF000CF2F0A128A11002883010A128A11C52FE5
:08400000FF3FFF3FFF3FFF3FC0
:04400E00D420FF3F7C
:00000001FF
