:060000000A128A11EE2F26
:100C2E007E088A007F0882000A128A1117260A128D
:100C3E008A118000840A04087D0603190034FF0A15
:100C4E000319FE0A1B2E3F340034063400345B3485
:100C5E0000344F340034663400346D3400347D3447
:100C6E000034073400347F34003467340034831684
:100C7E0003130514831603170814831203131F1787
:100C8E009F13831603131F129F129F1383120313B6
:100C9E001F119F111F129F121F142130F000F00B15
:100CAE00562E080083160317880189010730831614
:100CBE000313860087018801890181131514951489
:100CCE001515831203138601870188018901831686
:100CDE0003130F088F3960388F000F1408000A12A3
:100CEE008A1159260A128A110A128A113E260A12EE
:100CFE008A11831203130618852E862E8E2E061C3D
:100D0E00892E8A2E862E0130B8003808880786185C
:100D1E00912E922E982E861C952E962E922E013066
:100D2E0088029F149F189C2E9D2E992E0C130A122A
:100D3E008A1184270A128A110D3083120313B90007
:100D4E00FB30B800B80BA92EB90BA92E83120313D2
:100D5E000619B22EB32E802E061DB62EB72EB32E2A
:100D6E001E0808020318BC2EBD2EBF2E0915802E9C
:100D7E000911802E0A128A110028F601F31FC82EBF
:100D8E00C92ED02EF209F309F20A0319F30AF6015D
:100D9E00F60AF11FD32ED42ED92EF009F109F00A3E
:100DAE000319F10A700871040319DE2EDF2E0E2FBF
:100DBE00F501F50AED2E01300310F00DF10DFF3E99
:100DCE00031DE32E0130F4007408F507F11FF02E19
:100DDE00F12EE22E71087302031DF72E70087202B7
:100DEE00031CFA2EFB2E012F7008F2027108031C51
:100DFE00F303F30201300310F10CF00CFF3E031D60
:100E0E00022F0130F502031D0D2F0E2FF12E760845
:100E1E000319122F132F182FF209F309F20A0319CF
:100E2E00F30A7308F1007208F0000800F601F11FD2
:100E3E00212F222F292FF009F109F00A0319F10AA7
:100E4E00F601F60AF31F2C2F2D2F362FF209F30978
:100E5E00F20A0319F30A0130F4007408F606F701DA
:100E6E00F8017008710403193D2F3E2F752FF501FF
:100E7E00F50A4C2F01300310F00DF10DFF3E031D4E
:100E8E00422F0130F4007408F507F11F4F2F502F39
:100E9E00412F01300310F70DF80DFF3E031D512FAA
:100EAE0071087302031D5D2F70087202031C602F00
:100EBE00612F682F7008F2027108031CF303F3020E
:100ECE00771401300310F10CF00CFF3E031D692F57
:100EDE000130F502031D742F752F502F760803195C
:100EEE00792F7A2F7F2FF709F809F70A0319F80AD5
:100EFE007808F1007708F0000800203084003A30BE
:100F0E00F9000408FA001430FB00790884008313FA
:100F1E000008FC00F90A7A0884007C088000FA0AAE
:100F2E00FB0B8C2F0A30F0000030F10083120313FC
:100F3E001E08F900FA017908F2007A08F3000A1285
:100F4E008A11C4260A128A11710883120313B5007E
:100F5E007008B4000A30F0000030F1001E08F900ED
:100F6E00FA017908F2007A08F3000A128A111D2795
:100F7E000A128A11710883120313B7007008B600A3
:100F8E003408F9007907203E840083130008870097
:100F9E000914C730F900D32FF90BD22FD62FD72F24
:100FAE008312031309103608F9007907203E8400D6
:100FBE008313000887008914C730F900E62FF90B58
:100FCE00E52FE92FEA2F83120313891008008313EC
:100FDE004E30FD000630FE002A30FF003A3084000D
:100FEE000A128A111B260A128A1183010A128A1109
:020FFE00762E4D
:08400000FF3FFF3FFF3FFF3FC0
:04400E00D420FF3F7C
:00000001FF
