:060000000A128A11EE2F26
:100C4E007E088A007F0882000A128A1127260A125D
:100C5E008A118000840A04087D0603190034FF0AF5
:100C6E000319FE0A2B2E3F340034063400345B3455
:100C7E0000344F340034663400346D3400347D3427
:100C8E000034073400347F34003467340034831664
:100C9E0003130514831603170814831203131F1767
:100CAE009F13831603131F129F129F138312031396
:100CBE001F119F111F129F121F142130F000F00BF5
:100CCE00662E0800831603178801890103308316E8
:100CDE000313860087018801890181131514951469
:100CEE00831203138601870188018901831603137A
:100CFE000F088F3960388F000F1408000A128A11FE
:100D0E0069260A128A110A128A114E260A128A11AD
:100D1E00831203130618942E952E9D2E061C982EC4
:100D2E00992E952E0130B800380888078618A02E07
:100D3E00A12EA72E861CA42EA52EA12E0130880230
:100D4E009F149F18AB2EAC2EA82E0C130A128A11CC
:100D5E0080270A128A110D3083120313B900FB305B
:100D6E00B800B80BB82EB90BB82E8F2E0A128A11F6
:100D7E000028F601F31FC42EC52ECC2EF209F3095E
:100D8E00F20A0319F30AF601F60AF11FCF2ED02E3E
:100D9E00D52EF009F109F00A0319F10A7008710451
:100DAE000319DA2EDB2E0A2FF501F50AE92E013092
:100DBE000310F00DF10DFF3E031DDF2E0130F40088
:100DCE007408F507F11FEC2EED2EDE2E710873025E
:100DDE00031DF32E70087202031CF62EF72EFD2E45
:100DEE007008F2027108031CF303F30201300310C2
:100DFE00F10CF00CFF3E031DFE2E0130F502031D1B
:100E0E00092F0A2FED2E760803190E2F0F2F142FF0
:100E1E00F209F309F20A0319F30A7308F1007208D2
:100E2E00F0000800F601F11F1D2F1E2F252FF009CF
:100E3E00F109F00A0319F10AF601F60AF31F282F39
:100E4E00292F322FF209F309F20A0319F30A01309E
:100E5E00F4007408F606F701F8017008710403191E
:100E6E00392F3A2F712FF501F50A482F0130031053
:100E7E00F00DF10DFF3E031D3E2F0130F4007408FE
:100E8E00F507F11F4B2F4C2F3D2F01300310F70D9F
:100E9E00F80DFF3E031D4D2F71087302031D592FD0
:100EAE0070087202031C5C2F5D2F642F7008F20213
:100EBE007108031CF303F302771401300310F10CD5
:100ECE00F00CFF3E031D652F0130F502031D702F40
:100EDE00712F4C2F76080319752F762F7B2FF7095C
:100EEE00F809F70A0319F80A7808F1007708F000F4
:100EFE000800203084003A30F9000408FA0014305B
:100F0E00FB007908840083130008FC00F90A7A08B4
:100F1E0084007C088000FA0AFB0B882F0A30F00050
:100F2E000030F100831203131E08F900FA0179084C
:100F3E00F2007A08F3000A128A11C0260A128A11E8
:100F4E00710883120313B5007008B4000A30F00064
:100F5E000030F1001E08F900FA017908F2007A0853
:100F6E00F3000A128A1119270A128A1171088312C4
:100F7E000313B7007008B6003408F9007907203E55
:100F8E00840083130008870009140D30FA00FB302B
:100F9E00F900F90BD02FFA0BD02FD52F8312031394
:100FAE0009103608F9007907203E840083130008E3
:100FBE00870089140D30FA00FB30F900F90BE52F8C
:100FCE00FA0BE52FEA2F83120313891008008313FF
:100FDE004E30FD000630FE003A30FF003A308400FD
:100FEE000A128A112B260A128A1183010A128A11F9
:020FFE00852E3E
:08400000FF3FFF3FFF3FFF3FC0
:04400E00D420FF3F7C
:00000001FF
