:060000000A128A11EE2F26
:100BFE007E088A007F0882000A128A11FF250A12D7
:100C0E008A118000840A04087D0603190034FF0A45
:100C1E000319FE0A032E3F340034063400345B34CD
:100C2E0000344F340034663400346D3400347D3477
:100C3E000034073400347F340034673400348316B4
:100C4E0003130514831603170814831203131F17B7
:100C5E009F13831603131F129F129F1383120313E6
:100C6E001F119F111F129F121F142130F000F00B45
:100C7E003E2E08008316031788018901073083165C
:100C8E0003138600870188018901811315149514B9
:100C9E0015158312031386018701880189018316B6
:100CAE0003130F088F3960388F000F140800F601F8
:100CBE00F31F622E632E6A2EF209F309F20A03194C
:100CCE00F30AF601F60AF11F6D2E6E2E732EF00941
:100CDE00F109F00A0319F10A700871040319782E4C
:100CEE00792EA82EF501F50A872E01300310F00D8E
:100CFE00F10DFF3E031D7D2E0130F4007408F50743
:100D0E00F11F8A2E8B2E7C2E71087302031D912EDD
:100D1E0070087202031C942E952E9B2E7008F20200
:100D2E007108031CF303F30201300310F10CF00CF5
:100D3E00FF3E031D9C2E0130F502031DA72EA82E8B
:100D4E008B2E76080319AC2EAD2EB22EF209F309B6
:100D5E00F20A0319F30A7308F1007208F000080092
:100D6E000A128A1141260A128A110A128A1126269D
:100D7E000A128A11831203130618C62EC72ED72EF7
:100D8E00CD2E0A128A1184270A128A118312031396
:100D9E00061CD22ED32EC82E0130B8003808880774
:100DAE008618DA2EDB2EE92EE12E0A128A118427FE
:100DBE000A128A1183120313861CE62EE72EDC2EEE
:100DCE00013088029F149F18ED2EEE2EEA2E0C1382
:100DDE000A128A1184270A128A110D308312031304
:100DEE00B900FB30B800B80BFA2EB90BFA2E8312ED
:100DFE0003130619032F042FC12E0A2F0A128A116C
:100E0E0084270A128A1183120313061D0F2F102F27
:100E1E00052F1E0808020318152F162F182F091557
:100E2E00C12E0911C12E0A128A110028F601F11FD6
:100E3E00212F222F292FF009F109F00A0319F10AA7
:100E4E00F601F60AF31F2C2F2D2F362FF209F30978
:100E5E00F20A0319F30A0130F4007408F606F701DA
:100E6E00F8017008710403193D2F3E2F752FF501FF
:100E7E00F50A4C2F01300310F00DF10DFF3E031D4E
:100E8E00422F0130F4007408F507F11F4F2F502F39
:100E9E00412F01300310F70DF80DFF3E031D512FAA
:100EAE0071087302031D5D2F70087202031C602F00
:100EBE00612F682F7008F2027108031CF303F3020E
:100ECE00771401300310F10CF00CFF3E031D692F57
:100EDE000130F502031D742F752F502F760803195C
:100EEE00792F7A2F7F2FF709F809F70A0319F80AD5
:100EFE007808F1007708F0000800203084003A30BE
:100F0E00F9000408FA001430FB00790884008313FA
:100F1E000008FC00F90A7A0884007C088000FA0AAE
:100F2E00FB0B8C2F0A30F0000030F10083120313FC
:100F3E001E08F900FA017908F2007A08F3000A1285
:100F4E008A115E260A128A11710883120313B500E4
:100F5E007008B4000A30F0000030F1001E08F900ED
:100F6E00FA017908F2007A08F3000A128A111D2795
:100F7E000A128A11710883120313B7007008B600A3
:100F8E003408F9007907203E840083130008870097
:100F9E000914C730F900D32FF90BD22FD62FD72F24
:100FAE008312031309103608F9007907203E8400D6
:100FBE008313000887008914C730F900E62FF90B58
:100FCE00E52FE92FEA2F83120313891008008313EC
:100FDE004E30FD000630FE001230FF003A30840025
:100FEE000A128A1103260A128A1183010A128A1121
:020FFE00B72E0C
:08400000FF3FFF3FFF3FFF3FC0
:04400E00D420FF3F7C
:00000001FF
